{
    "contractName": "TokenBridge",
    "abi": [
        {
            "inputs": [
                {
                    "internalType": "address",
                    "name": "_admin",
                    "type": "address"
                }
            ],
            "stateMutability": "nonpayable",
            "type": "constructor"
        },
        {
            "anonymous": false,
            "inputs": [
                {
                    "indexed": false,
                    "internalType": "uint16",
                    "name": "destinationChainId",
                    "type": "uint16"
                },
                {
                    "indexed": false,
                    "internalType": "uint256",
                    "name": "amount",
                    "type": "uint256"
                },
                {
                    "indexed": false,
                    "internalType": "address",
                    "name": "tokenContractAddress",
                    "type": "address"
                },
                {
                    "indexed": false,
                    "internalType": "bytes",
                    "name": "destinationWallet",
                    "type": "bytes"
                }
            ],
            "name": "BridgeDeposit",
            "type": "event"
        },
        {
            "anonymous": false,
            "inputs": [
                {
                    "indexed": false,
                    "internalType": "uint256",
                    "name": "amount",
                    "type": "uint256"
                },
                {
                    "indexed": false,
                    "internalType": "address",
                    "name": "tokenContractAddress",
                    "type": "address"
                },
                {
                    "indexed": false,
                    "internalType": "address",
                    "name": "destinationWallet",
                    "type": "address"
                },
                {
                    "indexed": false,
                    "internalType": "bytes32",
                    "name": "depositId",
                    "type": "bytes32"
                }
            ],
            "name": "BridgeRelease",
            "type": "event"
        },
        {
            "inputs": [],
            "name": "admin",
            "outputs": [
                {
                    "internalType": "address",
                    "name": "",
                    "type": "address"
                }
            ],
            "stateMutability": "view",
            "type": "function"
        },
        {
            "inputs": [
                {
                    "internalType": "uint16",
                    "name": "chain",
                    "type": "uint16"
                },
                {
                    "internalType": "uint256",
                    "name": "amount",
                    "type": "uint256"
                },
                {
                    "internalType": "address",
                    "name": "circleDepositAddress",
                    "type": "address"
                },
                {
                    "internalType": "address",
                    "name": "erc20Address",
                    "type": "address"
                },
                {
                    "internalType": "bytes",
                    "name": "destinationWallet",
                    "type": "bytes"
                }
            ],
            "name": "deposit",
            "outputs": [],
            "stateMutability": "nonpayable",
            "type": "function"
        },
        {
            "inputs": [
                {
                    "internalType": "uint256",
                    "name": "amount",
                    "type": "uint256"
                },
                {
                    "internalType": "address",
                    "name": "destinationWallet",
                    "type": "address"
                },
                {
                    "internalType": "address",
                    "name": "erc20Address",
                    "type": "address"
                },
                {
                    "internalType": "bytes32",
                    "name": "bridgeTransferId",
                    "type": "bytes32"
                }
            ],
            "name": "release",
            "outputs": [],
            "stateMutability": "nonpayable",
            "type": "function"
        }
    ],
    "bytecode": "0x608060405234801561001057600080fd5b50d3801561001d57600080fd5b50d2801561002a57600080fd5b506040516105a03803806105a08339810160408190526100499161006e565b600080546001600160a01b0319166001600160a01b03929092169190911790556100a7565b60006020828403121561008057600080fd5b81516001600160a81b038116811461009757600080fd5b6001600160a01b03169392505050565b6104ea806100b66000396000f3fe608060405234801561001057600080fd5b50d3801561001d57600080fd5b50d2801561002a57600080fd5b506004361061005b5760003560e01c80638e57b39914610060578063d5a554d314610075578063f851a44014610088575b600080fd5b61007361006e3660046102c4565b6100b7565b005b61007361008336600461031e565b6101de565b60005461009b906001600160a01b031681565b6040516001600160a01b03909116815260200160405180910390f35b6000546001600160a01b0316331461010e5760405162461bcd60e51b815260206004820152601660248201527537b7363c9031b0b63630b1363290313c9030b236b4b760511b604482015260640160405180910390fd5b6040516323b872dd60e01b81523360048201526001600160a01b038481166024830152604482018690528316906323b872dd906064016020604051808303816000875af1158015610163573d6000803e3d6000fd5b505050506040513d601f19601f820116820180604052508101906101879190610414565b50604080518581526001600160a01b0384811660208301528516818301526060810183905290517fb241bb000ff9b0ab76bbe9c8549ccc959df06b4385982e44a9d5643fe3bccb2f9181900360800190a150505050565b6040516323b872dd60e01b81523360048201526001600160a01b038481166024830152604482018690528316906323b872dd906064016020604051808303816000875af1158015610233573d6000803e3d6000fd5b505050506040513d601f19601f820116820180604052508101906102579190610414565b507fec2c913b1ddfaf80c662630f172736fca0e83b547589f7ea448f6582529363f68585848460405161028d949392919061043d565b60405180910390a15050505050565b600081356001600160a81b03811681146102b557600080fd5b6001600160a01b031692915050565b600080600080608085870312156102da57600080fd5b843593506102ea6020860161029c565b92506102f86040860161029c565b9396929550929360600135925050565b634e487b7160e01b600052604160045260246000fd5b600080600080600060a0868803121561033657600080fd5b853561ffff8116811461034857600080fd5b94506020860135935061035d6040870161029c565b925061036b6060870161029c565b9150608086013567ffffffffffffffff8082111561038857600080fd5b818801915088601f83011261039c57600080fd5b8135818111156103ae576103ae610308565b604051601f8201601f19908116603f011681019083821181831017156103d6576103d6610308565b816040528281528b60208487010111156103ef57600080fd5b8260208601602083013760006020848301015280955050505050509295509295909350565b60006020828403121561042657600080fd5b8151801515811461043657600080fd5b9392505050565b61ffff8516815260006020858184015260018060a01b038516604084015260806060840152835180608085015260005b818110156104895785810183015185820160a00152820161046d565b8181111561049b57600060a083870101525b50601f01601f19169290920160a001969550505050505056fea26474726f6e582212204b41e18677a8e29aefc4762cf45784b4b51dfe378e3b843469092fd9cb7cf97d64736f6c634300080b0033",
    "source": "// SPDX-License-Identifier: UNLICENSED\npragma solidity ^0.8.11;\n\n// Uncomment this line to use console.log\nimport \"./ITRC20.sol\";\n\ncontract TokenBridge {\n    event BridgeDeposit(\n        uint16 destinationChainId,\n        uint256 amount,\n        address tokenContractAddress,\n        bytes destinationWallet\n    );\n\n    event BridgeRelease(\n        uint256 amount,\n        address tokenContractAddress,\n        address destinationWallet,\n        // Deposit UUID + Circle Release UUID\n        bytes32 depositId\n    );\n\n    modifier onlyAdmin {\n        require(msg.sender == admin, \"only callable by admin\");\n        _;\n    }\n\n    address public admin;\n\n    constructor(\n        address _admin\n    ) {\n        admin = _admin;\n    }\n    /**\n     * Anyone can call this method\n     * needs ERC20 allowance from the respective\n     * signer\n     */\n    function deposit(\n        uint16 chain,\n        uint256 amount,\n        address circleDepositAddress,\n        address erc20Address,\n        bytes memory destinationWallet\n    ) public {\n        ITRC20(erc20Address).transferFrom(\n            msg.sender,\n            circleDepositAddress,\n            amount\n        );\n\n        emit BridgeDeposit(chain, amount, erc20Address, destinationWallet);\n    }\n    /**\n     * To be called only by our\n     * middle address on the respective EVM\n     * chain, needs ERC20 allowance\n     */\n    function release(\n        uint256 amount,\n        address destinationWallet,\n        address erc20Address,\n        bytes32 bridgeTransferId\n    ) public onlyAdmin {\n        ITRC20(erc20Address).transferFrom(\n            msg.sender,\n            destinationWallet,\n            amount\n        );\n\n        emit BridgeRelease(amount, erc20Address, destinationWallet, bridgeTransferId);\n    }\n}\n",
    "sourcePath": "/home/saadjhk/Desktop/github/glitter-finance/contracts/tron-usdc-contract/contracts/TokenBridge.sol",
    "compiler": {
        "name": "solc",
        "version": "0.8.11+commit.b01f3284.mod.Emscripten.clang"
    },
    "schemaVersion": "2.0.1",
    "updatedAt": "2023-02-14T15:00:21.426Z"
}