{
  "contractName": "TokenBridge",
  "abi": [
    {
      "inputs": [
        {
          "internalType": "address",
          "name": "_admin",
          "type": "address"
        }
      ],
      "stateMutability": "nonpayable",
      "type": "constructor"
    },
    {
      "anonymous": false,
      "inputs": [
        {
          "indexed": false,
          "internalType": "uint256",
          "name": "amount",
          "type": "uint256"
        },
        {
          "indexed": false,
          "internalType": "address",
          "name": "destinationWallet",
          "type": "address"
        },
        {
          "indexed": false,
          "internalType": "address",
          "name": "token",
          "type": "address"
        },
        {
          "indexed": false,
          "internalType": "bytes32",
          "name": "depositTransactionHash",
          "type": "bytes32"
        }
      ],
      "name": "BridgeRelease",
      "type": "event"
    },
    {
      "inputs": [],
      "name": "admin",
      "outputs": [
        {
          "internalType": "address",
          "name": "",
          "type": "address"
        }
      ],
      "stateMutability": "view",
      "type": "function"
    },
    {
      "inputs": [
        {
          "internalType": "uint256",
          "name": "amount",
          "type": "uint256"
        },
        {
          "internalType": "address",
          "name": "destinationWallet",
          "type": "address"
        },
        {
          "internalType": "address",
          "name": "erc20Address",
          "type": "address"
        },
        {
          "internalType": "bytes32",
          "name": "depositTransactionHash",
          "type": "bytes32"
        }
      ],
      "name": "release",
      "outputs": [],
      "stateMutability": "nonpayable",
      "type": "function"
    }
  ],
  "bytecode": "0x608060405234801561001057600080fd5b50d3801561001d57600080fd5b50d2801561002a57600080fd5b506040516103413803806103418339810160408190526100499161006e565b600080546001600160a01b0319166001600160a01b03929092169190911790556100a7565b60006020828403121561008057600080fd5b81516001600160a81b038116811461009757600080fd5b6001600160a01b03169392505050565b61028b806100b66000396000f3fe608060405234801561001057600080fd5b50d3801561001d57600080fd5b50d2801561002a57600080fd5b50600436106100505760003560e01c80638e57b39914610055578063f851a4401461006a575b600080fd5b6100686100633660046101e8565b610099565b005b60005461007d906001600160a01b031681565b6040516001600160a01b03909116815260200160405180910390f35b6000546001600160a01b031633146100f05760405162461bcd60e51b815260206004820152601660248201527537b7363c9031b0b63630b1363290313c9030b236b4b760511b604482015260640160405180910390fd5b6040516323b872dd60e01b81523360048201526001600160a01b038481166024830152604482018690528316906323b872dd906064016020604051808303816000875af1158015610145573d6000803e3d6000fd5b505050506040513d601f19601f82011682018060405250810190610169919061022c565b50604080518581526001600160a01b0385811660208301528416818301526060810183905290517fb241bb000ff9b0ab76bbe9c8549ccc959df06b4385982e44a9d5643fe3bccb2f9181900360800190a150505050565b600081356001600160a81b03811681146101d957600080fd5b6001600160a01b031692915050565b600080600080608085870312156101fe57600080fd5b8435935061020e602086016101c0565b925061021c604086016101c0565b9396929550929360600135925050565b60006020828403121561023e57600080fd5b8151801515811461024e57600080fd5b939250505056fea26474726f6e582212201d5971e283b3b3cbb8585b55037cdd0a7b6b2b479e8a076e23be0b8e28d7349064736f6c634300080b0033",
  "source": "// SPDX-License-Identifier: UNLICENSED\npragma solidity ^0.8.9;\n\n// Uncomment this line to use console.log\n// import \"hardhat/console.sol\";\ninterface IERC20 {\n    function transfer(\n        address recipient,\n        uint256 amount\n    ) external returns (bool);\n\n    function transferFrom(\n        address from,\n        address to,\n        uint256 amount\n    ) external returns (bool);\n}\n\ncontract TokenBridge {\n    event BridgeRelease(\n        uint256 amount,\n        address destinationWallet,\n        address token,\n        // keccak256 of transaction hash on source chain\n        // for solana => base 58 to bytes then keccak256 (https://docs.solana.com/developing/programming-model/transactions#transaction-format) (https://docs.solana.com/integrations/exchange#validating-user-supplied-account-addresses-for-withdrawals)\n        // for evm => direct(no decoding) keccak256 (https://github.com/ethereum/EIPs/issues/55)\n        // for algorand => base 32 to bytes then keccak256 (https://developer.algorand.org/docs/get-details/encoding/#base64)\n        // for flow => direct(no decoding) keccak256\n        bytes32 depositTransactionHash\n    );\n\n    modifier onlyAdmin() {\n        require(msg.sender == admin, \"only callable by admin\");\n        _;\n    }\n\n    address public admin;\n\n    constructor(address _admin) {\n        admin = _admin;\n    }\n\n    /**\n     * To be called only by our\n     * middle address on the respective EVM\n     * chain, needs ERC20 allowance\n     */\n    function release(\n        uint256 amount,\n        address destinationWallet,\n        address erc20Address,\n        bytes32 depositTransactionHash\n    ) public onlyAdmin {\n        IERC20(erc20Address).transferFrom(\n            msg.sender,\n            destinationWallet,\n            amount\n        );\n\n        emit BridgeRelease(\n            amount,\n            destinationWallet,\n            erc20Address,\n            depositTransactionHash\n        );\n    }\n}\n",
  "sourcePath": "/home/saadjhk/Desktop/github/glitter-finance/contracts/tron-usdc-contract/contracts/TokenBridge.sol",
  "compiler": {
    "name": "solc",
    "version": "0.8.11+commit.b01f3284.mod.Emscripten.clang"
  },
  "schemaVersion": "2.0.1",
  "updatedAt": "2023-03-03T14:35:05.969Z"
}